{
  "_format": "hh-sol-artifact-1",
  "contractName": "SpaceManager",
  "sourceName": "contracts/SpaceManager.sol",
  "abi": [
    {
      "anonymous": false,
      "inputs": [
        {
          "indexed": true,
          "internalType": "uint256",
          "name": "newSpaceId",
          "type": "uint256"
        },
        {
          "indexed": true,
          "internalType": "address",
          "name": "registerAddress",
          "type": "address"
        },
        {
          "indexed": false,
          "internalType": "string",
          "name": "detail",
          "type": "string"
        }
      ],
      "name": "NewSpaceRegistered",
      "type": "event"
    },
    {
      "anonymous": false,
      "inputs": [
        {
          "indexed": true,
          "internalType": "address",
          "name": "previousOwner",
          "type": "address"
        },
        {
          "indexed": true,
          "internalType": "address",
          "name": "newOwner",
          "type": "address"
        }
      ],
      "name": "OwnershipTransferred",
      "type": "event"
    },
    {
      "anonymous": false,
      "inputs": [
        {
          "indexed": true,
          "internalType": "uint256",
          "name": "spaceId",
          "type": "uint256"
        }
      ],
      "name": "SpaceApproved",
      "type": "event"
    },
    {
      "anonymous": false,
      "inputs": [
        {
          "indexed": true,
          "internalType": "uint256",
          "name": "spaceId",
          "type": "uint256"
        },
        {
          "indexed": false,
          "internalType": "string",
          "name": "newDetail",
          "type": "string"
        }
      ],
      "name": "UpdatedSpace",
      "type": "event"
    },
    {
      "inputs": [
        {
          "internalType": "uint256",
          "name": "spaceId",
          "type": "uint256"
        }
      ],
      "name": "approveNewSpace",
      "outputs": [],
      "stateMutability": "nonpayable",
      "type": "function"
    },
    {
      "inputs": [],
      "name": "auditOn",
      "outputs": [
        {
          "internalType": "bool",
          "name": "",
          "type": "bool"
        }
      ],
      "stateMutability": "view",
      "type": "function"
    },
    {
      "inputs": [],
      "name": "auditSwitch",
      "outputs": [],
      "stateMutability": "nonpayable",
      "type": "function"
    },
    {
      "inputs": [
        {
          "internalType": "uint256",
          "name": "spaceId",
          "type": "uint256"
        },
        {
          "internalType": "address",
          "name": "account",
          "type": "address"
        }
      ],
      "name": "isSpaceOwner",
      "outputs": [
        {
          "internalType": "bool",
          "name": "",
          "type": "bool"
        }
      ],
      "stateMutability": "view",
      "type": "function"
    },
    {
      "inputs": [],
      "name": "owner",
      "outputs": [
        {
          "internalType": "address",
          "name": "",
          "type": "address"
        }
      ],
      "stateMutability": "view",
      "type": "function"
    },
    {
      "inputs": [
        {
          "internalType": "string",
          "name": "metadata",
          "type": "string"
        }
      ],
      "name": "registerNewSpace",
      "outputs": [],
      "stateMutability": "nonpayable",
      "type": "function"
    },
    {
      "inputs": [],
      "name": "renounceOwnership",
      "outputs": [],
      "stateMutability": "nonpayable",
      "type": "function"
    },
    {
      "inputs": [
        {
          "internalType": "uint256",
          "name": "",
          "type": "uint256"
        }
      ],
      "name": "spaces",
      "outputs": [
        {
          "internalType": "address",
          "name": "spaceOwner",
          "type": "address"
        },
        {
          "internalType": "string",
          "name": "details",
          "type": "string"
        },
        {
          "internalType": "bool",
          "name": "verified",
          "type": "bool"
        }
      ],
      "stateMutability": "view",
      "type": "function"
    },
    {
      "inputs": [],
      "name": "totalSpaces",
      "outputs": [
        {
          "internalType": "uint256",
          "name": "",
          "type": "uint256"
        }
      ],
      "stateMutability": "view",
      "type": "function"
    },
    {
      "inputs": [
        {
          "internalType": "address",
          "name": "newOwner",
          "type": "address"
        }
      ],
      "name": "transferOwnership",
      "outputs": [],
      "stateMutability": "nonpayable",
      "type": "function"
    },
    {
      "inputs": [
        {
          "internalType": "uint256",
          "name": "spaceId",
          "type": "uint256"
        },
        {
          "internalType": "string",
          "name": "newDetail",
          "type": "string"
        }
      ],
      "name": "updateSpace",
      "outputs": [],
      "stateMutability": "nonpayable",
      "type": "function"
    },
    {
      "inputs": [
        {
          "internalType": "uint256",
          "name": "spaceId",
          "type": "uint256"
        }
      ],
      "name": "verifiedSpace",
      "outputs": [
        {
          "internalType": "bool",
          "name": "",
          "type": "bool"
        }
      ],
      "stateMutability": "view",
      "type": "function"
    }
  ],
  "bytecode": "0x608060405234801561001057600080fd5b5061001a3361001f565b61006f565b600080546001600160a01b038381166001600160a01b0319831681178455604051919092169283917f8be0079c531659141344cd1fd0a4f28419497f9722a3daafe3b4186f6b6457e09190a35050565b610ada8061007e6000396000f3fe608060405234801561001057600080fd5b50600436106100b45760003560e01c80638ee16080116100715780638ee1608014610137578063a1ce5f111461015a578063a25acce114610180578063aa366cc01461018d578063d93f98ba146101a0578063f2fde38b146101b757600080fd5b80631b40c379146100b9578063715018a6146100c35780637586353b146100cb578063838d2053146100f657806387e50e45146101095780638da5cb5b1461011c575b600080fd5b6100c16101ca565b005b6100c16101e6565b6100de6100d9366004610803565b6101fa565b6040516100ed93929190610869565b60405180910390f35b6100c1610104366004610942565b6102b3565b6100c1610117366004610989565b610372565b6000546040516001600160a01b0390911681526020016100ed565b61014a6101453660046109e2565b610484565b60405190151581526020016100ed565b61014a610168366004610803565b60009081526001602052604090206002015460ff1690565b60035461014a9060ff1681565b6100c161019b366004610803565b61056c565b6101a960025481565b6040519081526020016100ed565b6100c16101c5366004610a0e565b6105e7565b6101d261065d565b6003805460ff19811660ff90911615179055565b6101ee61065d565b6101f860006106b7565b565b6001602081905260009182526040909120805491810180546001600160a01b039093169261022790610a30565b80601f016020809104026020016040519081016040528092919081815260200182805461025390610a30565b80156102a05780601f10610275576101008083540402835291602001916102a0565b820191906000526020600020905b81548152906001019060200180831161028357829003601f168201915b5050506002909301549192505060ff1683565b600082815260016020526040902080546001600160a01b0316331461031f5760405162461bcd60e51b815260206004820152601b60248201527f6f6e6c7920616c6c6f77207370616365206f776e65722063616c6c000000000060448201526064015b60405180910390fd5b8151610334906001830190602085019061076a565b50827f32d4de8307537a2f34938ef195849d53e3a338719080ac3221d864834b72b208836040516103659190610a6a565b60405180910390a2505050565b600060026000815461038390610a7d565b91905081905590506103ba604051806060016040528060006001600160a01b03168152602001606081526020016000151581525090565b3381526020810183905260035460ff16156103d65760006103d9565b60015b151560408281019190915260008381526001602081815292909120835181546001600160a01b0319166001600160a01b03909116178155828401518051859492936104299390850192019061076a565b50604091820151600291909101805460ff191691151591909117905551339083907f6e570517786345d2d08b318e8c861e483a3b77da22cf4dd2d2d9d9c48f43a78390610477908790610a6a565b60405180910390a3505050565b600082815260016020818152604080842081516060810190925280546001600160a01b03168252928301805485949293840191906104c190610a30565b80601f01602080910402602001604051908101604052809291908181526020018280546104ed90610a30565b801561053a5780601f1061050f5761010080835404028352916020019161053a565b820191906000526020600020905b81548152906001019060200180831161051d57829003601f168201915b50505091835250506002919091015460ff161515602090910152516001600160a01b0384811691161491505092915050565b61057461065d565b60008181526001602081905260409091206002015460ff161515146105db5760405162461bcd60e51b815260206004820152601d60248201527f706c656173652072656769737472792073706163652066697273746c790000006044820152606401610316565b6105e481610707565b50565b6105ef61065d565b6001600160a01b0381166106545760405162461bcd60e51b815260206004820152602660248201527f4f776e61626c653a206e6577206f776e657220697320746865207a65726f206160448201526564647265737360d01b6064820152608401610316565b6105e4816106b7565b6000546001600160a01b031633146101f85760405162461bcd60e51b815260206004820181905260248201527f4f776e61626c653a2063616c6c6572206973206e6f7420746865206f776e65726044820152606401610316565b600080546001600160a01b038381166001600160a01b0319831681178455604051919092169283917f8be0079c531659141344cd1fd0a4f28419497f9722a3daafe3b4186f6b6457e09190a35050565b6000818152600160205260409020600201805460ff1916905560405162461bcd60e51b8152600401610316906020808252601f908201527f74617267657420737061636520686173206265656e2061637469766174656400604082015260600190565b82805461077690610a30565b90600052602060002090601f01602090048101928261079857600085556107de565b82601f106107b157805160ff19168380011785556107de565b828001600101855582156107de579182015b828111156107de5782518255916020019190600101906107c3565b506107ea9291506107ee565b5090565b5b808211156107ea57600081556001016107ef565b60006020828403121561081557600080fd5b5035919050565b6000815180845260005b8181101561084257602081850181015186830182015201610826565b81811115610854576000602083870101525b50601f01601f19169290920160200192915050565b6001600160a01b038416815260606020820181905260009061088d9083018561081c565b90508215156040830152949350505050565b634e487b7160e01b600052604160045260246000fd5b600082601f8301126108c657600080fd5b813567ffffffffffffffff808211156108e1576108e161089f565b604051601f8301601f19908116603f011681019082821181831017156109095761090961089f565b8160405283815286602085880101111561092257600080fd5b836020870160208301376000602085830101528094505050505092915050565b6000806040838503121561095557600080fd5b82359150602083013567ffffffffffffffff81111561097357600080fd5b61097f858286016108b5565b9150509250929050565b60006020828403121561099b57600080fd5b813567ffffffffffffffff8111156109b257600080fd5b6109be848285016108b5565b949350505050565b80356001600160a01b03811681146109dd57600080fd5b919050565b600080604083850312156109f557600080fd5b82359150610a05602084016109c6565b90509250929050565b600060208284031215610a2057600080fd5b610a29826109c6565b9392505050565b600181811c90821680610a4457607f821691505b602082108103610a6457634e487b7160e01b600052602260045260246000fd5b50919050565b602081526000610a29602083018461081c565b600060018201610a9d57634e487b7160e01b600052601160045260246000fd5b506001019056fea264697066735822122047c88029ba884c88b75cf26cc26d6ac7556d0a51d8df604782930682d660205064736f6c634300080d0033",
  "linkReferences": {},
  "deployedLinkReferences": {}
}