{
  "_format": "hh-sol-artifact-1",
  "contractName": "Space",
  "sourceName": "contracts/Space.sol",
  "abi": [
    {
      "anonymous": false,
      "inputs": [
        {
          "indexed": false,
          "internalType": "uint256",
          "name": "id",
          "type": "uint256"
        },
        {
          "indexed": false,
          "internalType": "address",
          "name": "owner",
          "type": "address"
        },
        {
          "indexed": false,
          "internalType": "string",
          "name": "displayName",
          "type": "string"
        },
        {
          "indexed": false,
          "internalType": "string",
          "name": "imageUrl",
          "type": "string"
        }
      ],
      "name": "NewGravatar",
      "type": "event"
    },
    {
      "anonymous": false,
      "inputs": [
        {
          "indexed": false,
          "internalType": "uint256",
          "name": "id",
          "type": "uint256"
        },
        {
          "indexed": false,
          "internalType": "address",
          "name": "owner",
          "type": "address"
        },
        {
          "indexed": false,
          "internalType": "string",
          "name": "displayName",
          "type": "string"
        },
        {
          "indexed": false,
          "internalType": "string",
          "name": "imageUrl",
          "type": "string"
        }
      ],
      "name": "UpdatedGravatar",
      "type": "event"
    },
    {
      "inputs": [
        {
          "internalType": "string",
          "name": "_displayName",
          "type": "string"
        },
        {
          "internalType": "string",
          "name": "_imageUrl",
          "type": "string"
        }
      ],
      "name": "createGravatar",
      "outputs": [],
      "stateMutability": "nonpayable",
      "type": "function"
    },
    {
      "inputs": [
        {
          "internalType": "uint256",
          "name": "id",
          "type": "uint256"
        }
      ],
      "name": "getGravatarById",
      "outputs": [
        {
          "internalType": "string",
          "name": "",
          "type": "string"
        },
        {
          "internalType": "string",
          "name": "",
          "type": "string"
        }
      ],
      "stateMutability": "view",
      "type": "function"
    },
    {
      "inputs": [],
      "name": "getGravatas",
      "outputs": [
        {
          "internalType": "uint256[]",
          "name": "",
          "type": "uint256[]"
        }
      ],
      "stateMutability": "view",
      "type": "function"
    },
    {
      "inputs": [
        {
          "internalType": "uint256",
          "name": "",
          "type": "uint256"
        }
      ],
      "name": "gravatarToOwner",
      "outputs": [
        {
          "internalType": "address",
          "name": "",
          "type": "address"
        }
      ],
      "stateMutability": "view",
      "type": "function"
    },
    {
      "inputs": [
        {
          "internalType": "uint256",
          "name": "",
          "type": "uint256"
        }
      ],
      "name": "gravatars",
      "outputs": [
        {
          "internalType": "address",
          "name": "owner",
          "type": "address"
        },
        {
          "internalType": "string",
          "name": "displayName",
          "type": "string"
        },
        {
          "internalType": "string",
          "name": "imageUrl",
          "type": "string"
        }
      ],
      "stateMutability": "view",
      "type": "function"
    },
    {
      "inputs": [
        {
          "internalType": "address",
          "name": "",
          "type": "address"
        },
        {
          "internalType": "uint256",
          "name": "",
          "type": "uint256"
        }
      ],
      "name": "ownerToGravatars",
      "outputs": [
        {
          "internalType": "uint256",
          "name": "",
          "type": "uint256"
        }
      ],
      "stateMutability": "view",
      "type": "function"
    },
    {
      "inputs": [],
      "name": "setMythicalGravatar",
      "outputs": [],
      "stateMutability": "nonpayable",
      "type": "function"
    },
    {
      "inputs": [
        {
          "internalType": "uint256",
          "name": "id",
          "type": "uint256"
        },
        {
          "internalType": "string",
          "name": "_imageUrl",
          "type": "string"
        }
      ],
      "name": "updateGravatarImage",
      "outputs": [],
      "stateMutability": "nonpayable",
      "type": "function"
    },
    {
      "inputs": [
        {
          "internalType": "uint256",
          "name": "id",
          "type": "uint256"
        },
        {
          "internalType": "string",
          "name": "_displayName",
          "type": "string"
        }
      ],
      "name": "updateGravatarName",
      "outputs": [],
      "stateMutability": "nonpayable",
      "type": "function"
    }
  ],
  "bytecode": "0x608060405234801561001057600080fd5b50610e5c806100206000396000f3fe608060405234801561001057600080fd5b50600436106100935760003560e01c8063a9e1438411610066578063a9e143841461012e578063ac15129614610143578063cdb3344a14610156578063d5ce24ed14610169578063fdbac5571461018b57600080fd5b8063188db3ef146100985780631d4f2c6d146100c2578063325a8364146100cc57806388d0d391146100ed575b600080fd5b6100ab6100a63660046109f6565b61019e565b6040516100b9929190610a5c565b60405180910390f35b6100ca61030a565b005b6100df6100da366004610a8a565b610419565b6040519081526020016100b9565b6101166100fb3660046109f6565b6001602052600090815260409020546001600160a01b031681565b6040516001600160a01b0390911681526020016100b9565b61013661044a565b6040516100b99190610ac2565b6100ca610151366004610ba9565b6104ab565b6100ca610164366004610bf0565b6105bd565b61017c6101773660046109f6565b61070c565b6040516100b993929190610c4a565b6100ca610199366004610ba9565b61085c565b606080600083815481106101b4576101b4610c8a565b9060005260206000209060030201600101600084815481106101d8576101d8610c8a565b90600052602060002090600302016002018180546101f590610ca0565b80601f016020809104026020016040519081016040528092919081815260200182805461022190610ca0565b801561026e5780601f106102435761010080835404028352916020019161026e565b820191906000526020600020905b81548152906001019060200180831161025157829003601f168201915b5050505050915080805461028190610ca0565b80601f01602080910402602001604051908101604052809291908181526020018280546102ad90610ca0565b80156102fa5780601f106102cf576101008083540402835291602001916102fa565b820191906000526020600020905b8154815290600101906020018083116102dd57829003601f168201915b5050505050905091509150915091565b738d3e809fbd258083a5ba004a527159da535c8aba331461032a57600080fd5b604080516060810182526000808252825180840184526001808252600160fd1b60208084018290528086019384528651808801885283815280820192909252958501528254908101835591805282517f290decd9548b62a8d60345a988386fc84ba6bc95484008f6362f93160ef3e563600390930292830180546001600160a01b0319166001600160a01b0390921691909117815590518051939491936103f8937f290decd9548b62a8d60345a988386fc84ba6bc95484008f6362f93160ef3e5640192919091019061095d565b506040820151805161041491600284019160209091019061095d565b505050565b6002602052816000526040600020818154811061043557600080fd5b90600052602060002001600091509150505481565b336000908152600260209081526040918290208054835181840281018401909452808452606093928301828280156104a157602002820191906000526020600020905b81548152602001906001019080831161048d575b5050505050905090565b600082815481106104be576104be610c8a565b60009182526020909120600390910201546001600160a01b031633146105205760405162461bcd60e51b815260206004820152601260248201527137bbb732b91030b2323939b99032b93937b960711b60448201526064015b60405180910390fd5b806000838154811061053457610534610c8a565b9060005260206000209060030201600201908051906020019061055892919061095d565b507f76571b7a897a1509c641587568218a290018fbdc8b9a724f17b77ff0eec22c0c82336000858154811061058f5761058f610c8a565b9060005260206000209060030201600101846040516105b19493929190610d79565b60405180910390a15050565b6040805160608101825233815260208082018581529282018490526000805460018101825590805282517f290decd9548b62a8d60345a988386fc84ba6bc95484008f6362f93160ef3e563600390920291820180546001600160a01b0319166001600160a01b0390921691909117815593518051939493610667937f290decd9548b62a8d60345a988386fc84ba6bc95484008f6362f93160ef3e56490930192919091019061095d565b506040820151805161068391600284019160209091019061095d565b50506000805480825260016020818152604080852080546001600160a01b03191633908117909155808652600283528186208054948501815586529190942090910182905591519092507f9ab3aefb2ba6dc12910ac1bce4692cf5c3c0d06cff16327c64a3ef78228b130b916106ff9184919087908790610dc0565b60405180910390a1505050565b6000818154811061071c57600080fd5b6000918252602090912060039091020180546001820180546001600160a01b0390921693509061074b90610ca0565b80601f016020809104026020016040519081016040528092919081815260200182805461077790610ca0565b80156107c45780601f10610799576101008083540402835291602001916107c4565b820191906000526020600020905b8154815290600101906020018083116107a757829003601f168201915b5050505050908060020180546107d990610ca0565b80601f016020809104026020016040519081016040528092919081815260200182805461080590610ca0565b80156108525780601f1061082757610100808354040283529160200191610852565b820191906000526020600020905b81548152906001019060200180831161083557829003601f168201915b5050505050905083565b6000828154811061086f5761086f610c8a565b60009182526020909120600390910201546001600160a01b031633146108cc5760405162461bcd60e51b815260206004820152601260248201527137bbb732b91030b2323939b99032b93937b960711b6044820152606401610517565b80600083815481106108e0576108e0610c8a565b9060005260206000209060030201600101908051906020019061090492919061095d565b507f76571b7a897a1509c641587568218a290018fbdc8b9a724f17b77ff0eec22c0c8233836000868154811061093c5761093c610c8a565b90600052602060002090600302016002016040516105b19493929190610dea565b82805461096990610ca0565b90600052602060002090601f01602090048101928261098b57600085556109d1565b82601f106109a457805160ff19168380011785556109d1565b828001600101855582156109d1579182015b828111156109d15782518255916020019190600101906109b6565b506109dd9291506109e1565b5090565b5b808211156109dd57600081556001016109e2565b600060208284031215610a0857600080fd5b5035919050565b6000815180845260005b81811015610a3557602081850181015186830182015201610a19565b81811115610a47576000602083870101525b50601f01601f19169290920160200192915050565b604081526000610a6f6040830185610a0f565b8281036020840152610a818185610a0f565b95945050505050565b60008060408385031215610a9d57600080fd5b82356001600160a01b0381168114610ab457600080fd5b946020939093013593505050565b6020808252825182820181905260009190848201906040850190845b81811015610afa57835183529284019291840191600101610ade565b50909695505050505050565b634e487b7160e01b600052604160045260246000fd5b600082601f830112610b2d57600080fd5b813567ffffffffffffffff80821115610b4857610b48610b06565b604051601f8301601f19908116603f01168101908282118183101715610b7057610b70610b06565b81604052838152866020858801011115610b8957600080fd5b836020870160208301376000602085830101528094505050505092915050565b60008060408385031215610bbc57600080fd5b82359150602083013567ffffffffffffffff811115610bda57600080fd5b610be685828601610b1c565b9150509250929050565b60008060408385031215610c0357600080fd5b823567ffffffffffffffff80821115610c1b57600080fd5b610c2786838701610b1c565b93506020850135915080821115610c3d57600080fd5b50610be685828601610b1c565b6001600160a01b0384168152606060208201819052600090610c6e90830185610a0f565b8281036040840152610c808185610a0f565b9695505050505050565b634e487b7160e01b600052603260045260246000fd5b600181811c90821680610cb457607f821691505b602082108103610cd457634e487b7160e01b600052602260045260246000fd5b50919050565b8054600090600181811c9080831680610cf457607f831692505b60208084108203610d1557634e487b7160e01b600052602260045260246000fd5b83885260208801828015610d305760018114610d4157610d6c565b60ff19871682528282019750610d6c565b60008981526020902060005b87811015610d6657815484820152908601908401610d4d565b83019850505b5050505050505092915050565b8481526001600160a01b0384166020820152608060408201819052600090610da390830185610cda565b8281036060840152610db58185610a0f565b979650505050505050565b8481526001600160a01b0384166020820152608060408201819052600090610da390830185610a0f565b8481526001600160a01b0384166020820152608060408201819052600090610e1490830185610a0f565b8281036060840152610db58185610cda56fea26469706673582212205717c39b42ba84fb31b09c92cf6cb0651a457b976b14480465171823037cdfc864736f6c634300080d0033",
  "linkReferences": {},
  "deployedLinkReferences": {}
}